{"abi":[{"type":"constructor","inputs":[{"name":"_l1BridgeAddress","type":"address","internalType":"address"}],"stateMutability":"nonpayable"},{"type":"function","name":"deployBridgedToken","inputs":[{"name":"name","type":"string","internalType":"string"},{"name":"symbol","type":"string","internalType":"string"}],"outputs":[],"stateMutability":"nonpayable"},{"type":"function","name":"getLockedFundsFromL1","inputs":[{"name":"l1Token","type":"address","internalType":"address"},{"name":"user","type":"address","internalType":"address"}],"outputs":[{"name":"","type":"uint256","internalType":"uint256"}],"stateMutability":"view"},{"type":"function","name":"latestL1BlockNumber","inputs":[],"outputs":[{"name":"","type":"uint256","internalType":"uint256"}],"stateMutability":"view"},{"type":"function","name":"mapToken","inputs":[{"name":"l1Token","type":"address","internalType":"address"},{"name":"l2Token","type":"address","internalType":"address"}],"outputs":[],"stateMutability":"nonpayable"},{"type":"function","name":"mint","inputs":[{"name":"l1Token","type":"address","internalType":"address"},{"name":"user","type":"address","internalType":"address"}],"outputs":[],"stateMutability":"nonpayable"},{"type":"function","name":"tokenMappings","inputs":[{"name":"","type":"address","internalType":"address"}],"outputs":[{"name":"","type":"address","internalType":"address"}],"stateMutability":"view"},{"type":"event","name":"L2TokenDeployed","inputs":[{"name":"l2Token","type":"address","indexed":true,"internalType":"address"},{"name":"name","type":"string","indexed":false,"internalType":"string"},{"name":"symbol","type":"string","indexed":false,"internalType":"string"}],"anonymous":false},{"type":"event","name":"TokenMapped","inputs":[{"name":"l1Token","type":"address","indexed":true,"internalType":"address"},{"name":"l2Token","type":"address","indexed":true,"internalType":"address"}],"anonymous":false},{"type":"event","name":"TokensMinted","inputs":[{"name":"l1Token","type":"address","indexed":true,"internalType":"address"},{"name":"l2Token","type":"address","indexed":true,"internalType":"address"},{"name":"user","type":"address","indexed":true,"internalType":"address"},{"name":"amount","type":"uint256","indexed":false,"internalType":"uint256"}],"anonymous":false}],"bytecode":{"object":"0x60a060405234801561001057600080fd5b506040516114a33803806114a383398101604081905261002f9161009a565b6001600160a01b0381166100895760405162461bcd60e51b815260206004820152601960248201527f4c31204272696467652061646472657373206973207a65726f00000000000000604482015260640160405180910390fd5b6001600160a01b03166080526100ca565b6000602082840312156100ac57600080fd5b81516001600160a01b03811681146100c357600080fd5b9392505050565b6080516113be6100e5600039600061054401526113be6000f3fe608060405234801561001057600080fd5b50600436106100625760003560e01c806305c42f24146100675780634740026914610082578063508d0a5f146100975780636722849a146100d8578063ee1fe2ad146100eb578063eefb80b0146100fe575b600080fd5b61006f610111565b6040519081526020015b60405180910390f35b610095610090366004610665565b610181565b005b6100c06100a5366004610698565b6000602081905290815260409020546001600160a01b031681565b6040516001600160a01b039091168152602001610079565b6100956100e636600461075f565b6102a0565b6100956100f9366004610665565b610322565b61006f61010c366004610665565b6104e2565b60006001605360981b016001600160a01b0316634599c7886040518163ffffffff1660e01b8152600401602060405180830381865afa158015610158573d6000803e3d6000fd5b505050506040513d601f19601f8201168201806040525081019061017c91906107c8565b905090565b6001600160a01b038216158015906101a157506001600160a01b03811615155b6101ea5760405162461bcd60e51b8152602060048201526015602482015274496e76616c696420746f6b656e206164647265737360581b60448201526064015b60405180910390fd5b6001600160a01b0382811660009081526020819052604090205416156102495760405162461bcd60e51b8152602060048201526014602482015273151bdad95b88185b1c9958591e481b585c1c195960621b60448201526064016101e1565b6001600160a01b0382811660008181526020819052604080822080546001600160a01b0319169486169485179055517f85920d35e6c72f6b2affffa04298b0cecfeba86e4a9f407df661f1cb8ab5e6179190a35050565b600082826040516102b09061063c565b6102bb929190610831565b604051809103906000f0801580156102d7573d6000803e3d6000fd5b509050806001600160a01b03167f864c4a3e11b1af40ce245b0cd34d946a021e5bf6e000602f955b9a6a34d567c78484604051610315929190610831565b60405180910390a2505050565b6001600160a01b03811661036f5760405162461bcd60e51b8152602060048201526014602482015273496e76616c69642075736572206164647265737360601b60448201526064016101e1565b6001600160a01b0380831660009081526020819052604090205416806103cd5760405162461bcd60e51b8152602060048201526013602482015272130c881d1bdad95b881b9bdd081b585c1c1959606a1b60448201526064016101e1565b60006103d984846104e2565b9050600081116104235760405162461bcd60e51b81526020600482015260156024820152744e6f2066756e6473206c6f636b6564206f6e204c3160581b60448201526064016101e1565b6040516340c10f1960e01b81526001600160a01b038481166004830152602482018390528316906340c10f1990604401600060405180830381600087803b15801561046d57600080fd5b505af1158015610481573d6000803e3d6000fd5b50505050826001600160a01b0316826001600160a01b0316856001600160a01b03167f7b8dcfc3f4c66ff19bc8b9b98d9effc634f0c511e88a308cf4e70761049e2c27846040516104d491815260200190565b60405180910390a450505050565b600080828460006040516020016104fa92919061085f565b60408051601f19818403018152908290528051602091820120610520939290910161085f565b60408051601f19818403018152908290528051602091820120925060009161056c917f00000000000000000000000000000000000000000000000000000000000000009185910161085f565b60405160208183030381529060405290506000806101016001600160a01b03168360405161059a9190610881565b600060405180830381855afa9150503d80600081146105d5576040519150601f19603f3d011682016040523d82523d6000602084013e6105da565b606091505b50915091508161061d5760405162461bcd60e51b815260206004820152600e60248201526d130c54d313d0510819985a5b195960921b60448201526064016101e1565b8080602001905181019061063191906107c8565b979650505050505050565b610aeb8061089e83390190565b80356001600160a01b038116811461066057600080fd5b919050565b6000806040838503121561067857600080fd5b61068183610649565b915061068f60208401610649565b90509250929050565b6000602082840312156106aa57600080fd5b6106b382610649565b9392505050565b634e487b7160e01b600052604160045260246000fd5b600082601f8301126106e157600080fd5b813567ffffffffffffffff8111156106fb576106fb6106ba565b604051601f8201601f19908116603f0116810167ffffffffffffffff8111828210171561072a5761072a6106ba565b60405281815283820160200185101561074257600080fd5b816020850160208301376000918101602001919091529392505050565b6000806040838503121561077257600080fd5b823567ffffffffffffffff81111561078957600080fd5b610795858286016106d0565b925050602083013567ffffffffffffffff8111156107b257600080fd5b6107be858286016106d0565b9150509250929050565b6000602082840312156107da57600080fd5b5051919050565b60005b838110156107fc5781810151838201526020016107e4565b50506000910152565b6000815180845261081d8160208601602086016107e1565b601f01601f19169290920160200192915050565b6040815260006108446040830185610805565b82810360208401526108568185610805565b95945050505050565b60609290921b6bffffffffffffffffffffffff19168252601482015260340190565b600082516108938184602087016107e1565b919091019291505056fe608060405234801561001057600080fd5b50604051610aeb380380610aeb83398101604081905261002f91610120565b8181600361003d8382610212565b50600461004a8282610212565b5050600580546001600160a01b03191633179055506102d0915050565b634e487b7160e01b600052604160045260246000fd5b600082601f83011261008e57600080fd5b81516001600160401b038111156100a7576100a7610067565b604051601f8201601f19908116603f011681016001600160401b03811182821017156100d5576100d5610067565b6040528181528382016020018510156100ed57600080fd5b60005b8281101561010c576020818601810151838301820152016100f0565b506000918101602001919091529392505050565b6000806040838503121561013357600080fd5b82516001600160401b0381111561014957600080fd5b6101558582860161007d565b602085015190935090506001600160401b0381111561017357600080fd5b61017f8582860161007d565b9150509250929050565b600181811c9082168061019d57607f821691505b6020821081036101bd57634e487b7160e01b600052602260045260246000fd5b50919050565b601f82111561020d57806000526020600020601f840160051c810160208510156101ea5750805b601f840160051c820191505b8181101561020a57600081556001016101f6565b50505b505050565b81516001600160401b0381111561022b5761022b610067565b61023f816102398454610189565b846101c3565b6020601f821160018114610273576000831561025b5750848201515b600019600385901b1c1916600184901b17845561020a565b600084815260208120601f198516915b828110156102a35787850151825560209485019460019092019101610283565b50848210156102c15786840151600019600387901b60f8161c191681555b50505050600190811b01905550565b61080c806102df6000396000f3fe608060405234801561001057600080fd5b50600436106100a95760003560e01c806340c10f191161007157806340c10f191461012357806370a082311461013857806395d89b4114610161578063a9059cbb14610169578063dd62ed3e1461017c578063e78cea92146101b557600080fd5b806306fdde03146100ae578063095ea7b3146100cc57806318160ddd146100ef57806323b872dd14610101578063313ce56714610114575b600080fd5b6100b66101e0565b6040516100c39190610655565b60405180910390f35b6100df6100da3660046106bf565b610272565b60405190151581526020016100c3565b6002545b6040519081526020016100c3565b6100df61010f3660046106e9565b61028c565b604051601281526020016100c3565b6101366101313660046106bf565b6102b0565b005b6100f3610146366004610726565b6001600160a01b031660009081526020819052604090205490565b6100b6610314565b6100df6101773660046106bf565b610323565b6100f361018a366004610748565b6001600160a01b03918216600090815260016020908152604080832093909416825291909152205490565b6005546101c8906001600160a01b031681565b6040516001600160a01b0390911681526020016100c3565b6060600380546101ef9061077b565b80601f016020809104026020016040519081016040528092919081815260200182805461021b9061077b565b80156102685780601f1061023d57610100808354040283529160200191610268565b820191906000526020600020905b81548152906001019060200180831161024b57829003601f168201915b5050505050905090565b600033610280818585610331565b60019150505b92915050565b60003361029a858285610343565b6102a58585856103c1565b506001949350505050565b6005546001600160a01b031633146103065760405162461bcd60e51b815260206004820152601460248201527313db9b1e48189c9a5919d94818d85b881b5a5b9d60621b60448201526064015b60405180910390fd5b6103108282610420565b5050565b6060600480546101ef9061077b565b6000336102808185856103c1565b61033e8383836001610456565b505050565b6001600160a01b0383811660009081526001602090815260408083209386168352929052205460001981146103bb57818110156103ac57604051637dc7a0d960e11b81526001600160a01b038416600482015260248101829052604481018390526064016102fd565b6103bb84848484036000610456565b50505050565b6001600160a01b0383166103eb57604051634b637e8f60e11b8152600060048201526024016102fd565b6001600160a01b0382166104155760405163ec442f0560e01b8152600060048201526024016102fd565b61033e83838361052b565b6001600160a01b03821661044a5760405163ec442f0560e01b8152600060048201526024016102fd565b6103106000838361052b565b6001600160a01b0384166104805760405163e602df0560e01b8152600060048201526024016102fd565b6001600160a01b0383166104aa57604051634a1406b160e11b8152600060048201526024016102fd565b6001600160a01b03808516600090815260016020908152604080832093871683529290522082905580156103bb57826001600160a01b0316846001600160a01b03167f8c5be1e5ebec7d5bd14f71427d1e84f3dd0314c0f7b2291e5b200ac8c7c3b9258460405161051d91815260200190565b60405180910390a350505050565b6001600160a01b03831661055657806002600082825461054b91906107b5565b909155506105c89050565b6001600160a01b038316600090815260208190526040902054818110156105a95760405163391434e360e21b81526001600160a01b038516600482015260248101829052604481018390526064016102fd565b6001600160a01b03841660009081526020819052604090209082900390555b6001600160a01b0382166105e457600280548290039055610603565b6001600160a01b03821660009081526020819052604090208054820190555b816001600160a01b0316836001600160a01b03167fddf252ad1be2c89b69c2b068fc378daa952ba7f163c4a11628f55a4df523b3ef8360405161064891815260200190565b60405180910390a3505050565b602081526000825180602084015260005b818110156106835760208186018101516040868401015201610666565b506000604082850101526040601f19601f83011684010191505092915050565b80356001600160a01b03811681146106ba57600080fd5b919050565b600080604083850312156106d257600080fd5b6106db836106a3565b946020939093013593505050565b6000806000606084860312156106fe57600080fd5b610707846106a3565b9250610715602085016106a3565b929592945050506040919091013590565b60006020828403121561073857600080fd5b610741826106a3565b9392505050565b6000806040838503121561075b57600080fd5b610764836106a3565b9150610772602084016106a3565b90509250929050565b600181811c9082168061078f57607f821691505b6020821081036107af57634e487b7160e01b600052602260045260246000fd5b50919050565b8082018082111561028657634e487b7160e01b600052601160045260246000fdfea26469706673582212204a486605b237ceedbb471b5a9d65ba79b6c57cb4f5a8d09db34b767617471e8b64736f6c634300081a0033a264697066735822122073cdbd92ef8956b75f97d2ac14ce47cce334b32bedff3deba2545692ba8d54fd64736f6c634300081a0033","linkReferences":{}},"methodIdentifiers":{"deployBridgedToken(string,string)":"6722849a","getLockedFundsFromL1(address,address)":"eefb80b0","latestL1BlockNumber()":"05c42f24","mapToken(address,address)":"47400269","mint(address,address)":"ee1fe2ad","tokenMappings(address)":"508d0a5f"},"id":62}