{"abi":[{"type":"constructor","inputs":[{"name":"name","type":"string","internalType":"string"},{"name":"symbol","type":"string","internalType":"string"}],"stateMutability":"nonpayable"},{"type":"function","name":"allowance","inputs":[{"name":"owner","type":"address","internalType":"address"},{"name":"spender","type":"address","internalType":"address"}],"outputs":[{"name":"","type":"uint256","internalType":"uint256"}],"stateMutability":"view"},{"type":"function","name":"approve","inputs":[{"name":"spender","type":"address","internalType":"address"},{"name":"value","type":"uint256","internalType":"uint256"}],"outputs":[{"name":"","type":"bool","internalType":"bool"}],"stateMutability":"nonpayable"},{"type":"function","name":"balanceOf","inputs":[{"name":"account","type":"address","internalType":"address"}],"outputs":[{"name":"","type":"uint256","internalType":"uint256"}],"stateMutability":"view"},{"type":"function","name":"bridge","inputs":[],"outputs":[{"name":"","type":"address","internalType":"address"}],"stateMutability":"view"},{"type":"function","name":"decimals","inputs":[],"outputs":[{"name":"","type":"uint8","internalType":"uint8"}],"stateMutability":"view"},{"type":"function","name":"mint","inputs":[{"name":"to","type":"address","internalType":"address"},{"name":"amount","type":"uint256","internalType":"uint256"}],"outputs":[],"stateMutability":"nonpayable"},{"type":"function","name":"name","inputs":[],"outputs":[{"name":"","type":"string","internalType":"string"}],"stateMutability":"view"},{"type":"function","name":"symbol","inputs":[],"outputs":[{"name":"","type":"string","internalType":"string"}],"stateMutability":"view"},{"type":"function","name":"totalSupply","inputs":[],"outputs":[{"name":"","type":"uint256","internalType":"uint256"}],"stateMutability":"view"},{"type":"function","name":"transfer","inputs":[{"name":"to","type":"address","internalType":"address"},{"name":"value","type":"uint256","internalType":"uint256"}],"outputs":[{"name":"","type":"bool","internalType":"bool"}],"stateMutability":"nonpayable"},{"type":"function","name":"transferFrom","inputs":[{"name":"from","type":"address","internalType":"address"},{"name":"to","type":"address","internalType":"address"},{"name":"value","type":"uint256","internalType":"uint256"}],"outputs":[{"name":"","type":"bool","internalType":"bool"}],"stateMutability":"nonpayable"},{"type":"event","name":"Approval","inputs":[{"name":"owner","type":"address","indexed":true,"internalType":"address"},{"name":"spender","type":"address","indexed":true,"internalType":"address"},{"name":"value","type":"uint256","indexed":false,"internalType":"uint256"}],"anonymous":false},{"type":"event","name":"Transfer","inputs":[{"name":"from","type":"address","indexed":true,"internalType":"address"},{"name":"to","type":"address","indexed":true,"internalType":"address"},{"name":"value","type":"uint256","indexed":false,"internalType":"uint256"}],"anonymous":false},{"type":"error","name":"ERC20InsufficientAllowance","inputs":[{"name":"spender","type":"address","internalType":"address"},{"name":"allowance","type":"uint256","internalType":"uint256"},{"name":"needed","type":"uint256","internalType":"uint256"}]},{"type":"error","name":"ERC20InsufficientBalance","inputs":[{"name":"sender","type":"address","internalType":"address"},{"name":"balance","type":"uint256","internalType":"uint256"},{"name":"needed","type":"uint256","internalType":"uint256"}]},{"type":"error","name":"ERC20InvalidApprover","inputs":[{"name":"approver","type":"address","internalType":"address"}]},{"type":"error","name":"ERC20InvalidReceiver","inputs":[{"name":"receiver","type":"address","internalType":"address"}]},{"type":"error","name":"ERC20InvalidSender","inputs":[{"name":"sender","type":"address","internalType":"address"}]},{"type":"error","name":"ERC20InvalidSpender","inputs":[{"name":"spender","type":"address","internalType":"address"}]}],"bytecode":{"object":"0x608060405234801561001057600080fd5b50604051610aeb380380610aeb83398101604081905261002f91610120565b8181600361003d8382610212565b50600461004a8282610212565b5050600580546001600160a01b03191633179055506102d0915050565b634e487b7160e01b600052604160045260246000fd5b600082601f83011261008e57600080fd5b81516001600160401b038111156100a7576100a7610067565b604051601f8201601f19908116603f011681016001600160401b03811182821017156100d5576100d5610067565b6040528181528382016020018510156100ed57600080fd5b60005b8281101561010c576020818601810151838301820152016100f0565b506000918101602001919091529392505050565b6000806040838503121561013357600080fd5b82516001600160401b0381111561014957600080fd5b6101558582860161007d565b602085015190935090506001600160401b0381111561017357600080fd5b61017f8582860161007d565b9150509250929050565b600181811c9082168061019d57607f821691505b6020821081036101bd57634e487b7160e01b600052602260045260246000fd5b50919050565b601f82111561020d57806000526020600020601f840160051c810160208510156101ea5750805b601f840160051c820191505b8181101561020a57600081556001016101f6565b50505b505050565b81516001600160401b0381111561022b5761022b610067565b61023f816102398454610189565b846101c3565b6020601f821160018114610273576000831561025b5750848201515b600019600385901b1c1916600184901b17845561020a565b600084815260208120601f198516915b828110156102a35787850151825560209485019460019092019101610283565b50848210156102c15786840151600019600387901b60f8161c191681555b50505050600190811b01905550565b61080c806102df6000396000f3fe608060405234801561001057600080fd5b50600436106100a95760003560e01c806340c10f191161007157806340c10f191461012357806370a082311461013857806395d89b4114610161578063a9059cbb14610169578063dd62ed3e1461017c578063e78cea92146101b557600080fd5b806306fdde03146100ae578063095ea7b3146100cc57806318160ddd146100ef57806323b872dd14610101578063313ce56714610114575b600080fd5b6100b66101e0565b6040516100c39190610655565b60405180910390f35b6100df6100da3660046106bf565b610272565b60405190151581526020016100c3565b6002545b6040519081526020016100c3565b6100df61010f3660046106e9565b61028c565b604051601281526020016100c3565b6101366101313660046106bf565b6102b0565b005b6100f3610146366004610726565b6001600160a01b031660009081526020819052604090205490565b6100b6610314565b6100df6101773660046106bf565b610323565b6100f361018a366004610748565b6001600160a01b03918216600090815260016020908152604080832093909416825291909152205490565b6005546101c8906001600160a01b031681565b6040516001600160a01b0390911681526020016100c3565b6060600380546101ef9061077b565b80601f016020809104026020016040519081016040528092919081815260200182805461021b9061077b565b80156102685780601f1061023d57610100808354040283529160200191610268565b820191906000526020600020905b81548152906001019060200180831161024b57829003601f168201915b5050505050905090565b600033610280818585610331565b60019150505b92915050565b60003361029a858285610343565b6102a58585856103c1565b506001949350505050565b6005546001600160a01b031633146103065760405162461bcd60e51b815260206004820152601460248201527313db9b1e48189c9a5919d94818d85b881b5a5b9d60621b60448201526064015b60405180910390fd5b6103108282610420565b5050565b6060600480546101ef9061077b565b6000336102808185856103c1565b61033e8383836001610456565b505050565b6001600160a01b0383811660009081526001602090815260408083209386168352929052205460001981146103bb57818110156103ac57604051637dc7a0d960e11b81526001600160a01b038416600482015260248101829052604481018390526064016102fd565b6103bb84848484036000610456565b50505050565b6001600160a01b0383166103eb57604051634b637e8f60e11b8152600060048201526024016102fd565b6001600160a01b0382166104155760405163ec442f0560e01b8152600060048201526024016102fd565b61033e83838361052b565b6001600160a01b03821661044a5760405163ec442f0560e01b8152600060048201526024016102fd565b6103106000838361052b565b6001600160a01b0384166104805760405163e602df0560e01b8152600060048201526024016102fd565b6001600160a01b0383166104aa57604051634a1406b160e11b8152600060048201526024016102fd565b6001600160a01b03808516600090815260016020908152604080832093871683529290522082905580156103bb57826001600160a01b0316846001600160a01b03167f8c5be1e5ebec7d5bd14f71427d1e84f3dd0314c0f7b2291e5b200ac8c7c3b9258460405161051d91815260200190565b60405180910390a350505050565b6001600160a01b03831661055657806002600082825461054b91906107b5565b909155506105c89050565b6001600160a01b038316600090815260208190526040902054818110156105a95760405163391434e360e21b81526001600160a01b038516600482015260248101829052604481018390526064016102fd565b6001600160a01b03841660009081526020819052604090209082900390555b6001600160a01b0382166105e457600280548290039055610603565b6001600160a01b03821660009081526020819052604090208054820190555b816001600160a01b0316836001600160a01b03167fddf252ad1be2c89b69c2b068fc378daa952ba7f163c4a11628f55a4df523b3ef8360405161064891815260200190565b60405180910390a3505050565b602081526000825180602084015260005b818110156106835760208186018101516040868401015201610666565b506000604082850101526040601f19601f83011684010191505092915050565b80356001600160a01b03811681146106ba57600080fd5b919050565b600080604083850312156106d257600080fd5b6106db836106a3565b946020939093013593505050565b6000806000606084860312156106fe57600080fd5b610707846106a3565b9250610715602085016106a3565b929592945050506040919091013590565b60006020828403121561073857600080fd5b610741826106a3565b9392505050565b6000806040838503121561075b57600080fd5b610764836106a3565b9150610772602084016106a3565b90509250929050565b600181811c9082168061078f57607f821691505b6020821081036107af57634e487b7160e01b600052602260045260246000fd5b50919050565b8082018082111561028657634e487b7160e01b600052601160045260246000fdfea26469706673582212204a486605b237ceedbb471b5a9d65ba79b6c57cb4f5a8d09db34b767617471e8b64736f6c634300081a0033","linkReferences":{}},"methodIdentifiers":{"allowance(address,address)":"dd62ed3e","approve(address,uint256)":"095ea7b3","balanceOf(address)":"70a08231","bridge()":"e78cea92","decimals()":"313ce567","mint(address,uint256)":"40c10f19","name()":"06fdde03","symbol()":"95d89b41","totalSupply()":"18160ddd","transfer(address,uint256)":"a9059cbb","transferFrom(address,address,uint256)":"23b872dd"},"id":60}