{"abi":[{"type":"function","name":"getLockedFunds","inputs":[{"name":"token","type":"address","internalType":"address"},{"name":"user","type":"address","internalType":"address"}],"outputs":[{"name":"","type":"uint256","internalType":"uint256"}],"stateMutability":"view"},{"type":"function","name":"lockFunds","inputs":[{"name":"token","type":"address","internalType":"address"},{"name":"amount","type":"uint256","internalType":"uint256"}],"outputs":[],"stateMutability":"nonpayable"},{"type":"function","name":"lockedFunds","inputs":[{"name":"","type":"address","internalType":"address"},{"name":"","type":"address","internalType":"address"}],"outputs":[{"name":"","type":"uint256","internalType":"uint256"}],"stateMutability":"view"},{"type":"event","name":"FundsLocked","inputs":[{"name":"token","type":"address","indexed":true,"internalType":"address"},{"name":"user","type":"address","indexed":true,"internalType":"address"},{"name":"amount","type":"uint256","indexed":false,"internalType":"uint256"}],"anonymous":false}],"bytecode":{"object":"0x6080604052348015600f57600080fd5b506103618061001f6000396000f3fe608060405234801561001057600080fd5b50600436106100415760003560e01c806312e382b4146100465780634bdde1cf1461005b578063dbe6cf6a14610095575b600080fd5b610059610054366004610284565b6100a8565b005b6100836100693660046102ae565b600060208181529281526040808220909352908152205481565b60405190815260200160405180910390f35b6100836100a33660046102ae565b61023d565b600081116100fd5760405162461bcd60e51b815260206004820181905260248201527f416d6f756e74206d7573742062652067726561746572207468616e207a65726f60448201526064015b60405180910390fd5b6001600160a01b03821661014b5760405162461bcd60e51b8152602060048201526015602482015274496e76616c696420746f6b656e206164647265737360581b60448201526064016100f4565b6040516323b872dd60e01b8152336004820152306024820152604481018290526001600160a01b038316906323b872dd906064016020604051808303816000875af115801561019e573d6000803e3d6000fd5b505050506040513d601f19601f820116820180604052508101906101c291906102e1565b506001600160a01b038216600090815260208181526040808320338452909152812080548392906101f490849061030a565b909155505060405181815233906001600160a01b038416907f01f89d10e75347e927ff82e0827cc9f3e38cdc0a300e9bfc4f518f53ed4a5f4a9060200160405180910390a35050565b6001600160a01b03808316600090815260208181526040808320938516835292905220545b92915050565b80356001600160a01b038116811461027f57600080fd5b919050565b6000806040838503121561029757600080fd5b6102a083610268565b946020939093013593505050565b600080604083850312156102c157600080fd5b6102ca83610268565b91506102d860208401610268565b90509250929050565b6000602082840312156102f357600080fd5b8151801515811461030357600080fd5b9392505050565b8082018082111561026257634e487b7160e01b600052601160045260246000fdfea264697066735822122067b45236e5dc9c6562dfc0d0973647659c4f1f4b80460778979112efe64834c164736f6c634300081c0033","linkReferences":{}},"methodIdentifiers":{"getLockedFunds(address,address)":"dbe6cf6a","lockFunds(address,uint256)":"12e382b4","lockedFunds(address,address)":"4bdde1cf"},"id":50}