{"abi":[{"type":"function","name":"retrieveL1Balance","inputs":[{"name":"user","type":"address","internalType":"address"},{"name":"l1TokenAddress","type":"address","internalType":"address"}],"outputs":[{"name":"","type":"uint256","internalType":"uint256"}],"stateMutability":"view"}],"bytecode":{"object":"0x6080604052348015600f57600080fd5b506102538061001f6000396000f3fe608060405234801561001057600080fd5b506004361061002b5760003560e01c8063e1c32c7614610030575b600080fd5b61004361003e3660046101a2565b610055565b60405190815260200160405180910390f35b604080516001600160a01b0384166020820152600091810182905281906100999084906060016040516020818303038152906040528051906020012060001c6100b4565b8060200190518101906100ac91906101d5565b949350505050565b604051606083811b6bffffffffffffffffffffffff19166020830152603482018390529060009082906101019060540160408051601f19818403018152908290526100fe916101ee565b600060405180830381855afa9150503d8060008114610139576040519150601f19603f3d011682016040523d82523d6000602084013e61013e565b606091505b509092509050816100ac5760405162461bcd60e51b815260206004820152600e60248201526d130c54d313d0510819985a5b195960921b604482015260640160405180910390fd5b80356001600160a01b038116811461019d57600080fd5b919050565b600080604083850312156101b557600080fd5b6101be83610186565b91506101cc60208401610186565b90509250929050565b6000602082840312156101e757600080fd5b5051919050565b6000825160005b8181101561020f57602081860181015185830152016101f5565b50600092019182525091905056fea2646970667358221220a865dc1b41719b4503f31d15a22deed3a07ed5184eb7b024235591c312ffc19564736f6c634300081c0033","linkReferences":{}},"methodIdentifiers":{"retrieveL1Balance(address,address)":"e1c32c76"},"id":52}